:03000000020205F4
:0C020500787FE4F6D8FD75815E02024CA3
:1002DC00C18120282371776572747975696F7020DC
:1002EC006173646667686A6B6C0A01027A7863767C
:1002FC00626E6D00000000000000000000144B371F
:10030C0038392D3435362B3132332F302E032A0425
:03031C00060507CC
:08039B001203AB1203B180FB59
:0603AB00120370C295224E
:0303B1000200D374
:10000300E4FDFCC3ED9FEC9E50147B787A00EB1B60
:0E00130070011AEB4A70F70DBD00010C80E57C
:0100210022BC
:1000D3007D017F03120291E4FDFF1202917B007AFE
:1000E3000079227F0312002EE522F4602C7F327EFA
:1000F300001200037D01E4FF120291E4FD7F03126D
:100103000291120026E521F4600F120177E521F434
:10011300600512002680F6D2947D017F04120291BD
:10012300E4FD7F011202917B007A0079227F0412A1
:10013300002EE522F4603C7F327E001200037D0135
:100143007F01120291E4FD7F041202917B007A0089
:1001530079217F0112002EE521F46017120177E562
:1001630021F4600D7B007A0079217F0112002E803B
:03017300EED29435
:010176002266
:06017700C294AD22AF218D
:04017D008F0B8D0C4B
:100181007E00EF6402700BED64027006B201A20101
:100191009293C3EF9403EE648094805056C3E50CB0
:1001A100940A74809480504BE50B75F00AA42423C3
:1001B100250CF8E6FF7E00C374609F7480F89850A8
:1001C10024C3EF947B74809480501AA201B3E4336A
:1001D100C43354E0FFE50B75F00AA42423250CF881
:1001E100E6C39F801AE50B75F00AA42423250CF8B9
:1001F100E6800CE50B25E025E02435250CF8E6FF2B
:030201001203A342
:0102040022D7
:080026007B007A007921E4FF60
:10002E0074FF120339EF14602024FE6035146077DC
:10003E00240460030200D220A002802920A10280A5
:10004E002A30A2030200D28029208102802B208038
:10005E0002802D209002802F209102803120916409
:10006E00803320A303E4805920A40474018052201D
:10007E00A5047402804B20A6047403804420A704B8
:10008E007404803D20B204740580362097047406F3
:10009E00802F2096047407802820870474088021FE
:1000AE002086217409801A208204740A801320830A
:1000BE0004740B800C208404740C80052085057458
:0500CE000D12033922B0
:10029100EF14601524FE601F1460342404703BEDDC
:1002A10024FF92A092A192A222ED24FF928192803A
:1002B10092909291929122ED24FF92A392A492A501
:1002C10092A692A792B2929792969287928622EDE7
:0B02D10024FF92829283928492852287
:1003700075985075CDFF75CCFD75CBFF75CAFDD254
:0E038000CCD2CDC2C9C2CBD2CAD2ACD2AF222F
:0300230002038E47
:0D038E00309802C298309904C299C2003222
:0803A3002000FDD2008F992219
:10034B008B088A09890AAB08AA09A90A120320603B
:10035B0013050AE50A7002050914F9120320FF12AE
:05036B0003A380E22263
:1002110002039BE493A3F8E493A34003F68001F265
:1002210008DFF48029E493A3F85407240CC8C333EE
:10023100C4540F4420C8834004F456800146F6DFBD
:10024100E4800B01020408102040809002DCE47E6F
:10025100019360BCA3FF543F30E509541FFEE493B2
:10026100A360010ECF54C025E060A840B8E493A379
:10027100FAE493A3F8E493A3C8C582C8CAC583CAA4
:10028100F0A3C8C582C8CAC583CADFE9DEE780BE5C
:01031F0000DD
:10032000BB010689828A83E0225002E722BBFE02DB
:09033000E32289828A83E493220E
:10033900BB010689828A83F0225002F722BBFE01A3
:02034900F3229D
:00000001FF
