:020000040800F2
:1000000008EC002021020008490B0008C70A00087C
:10001000DD0A0008D90600080F1B000800000000D8
:10002000000000000000000000000000750D000846
:100030005B09000800000000D10B0008ED12000869
:100040003B0200083B0200083B0200083B0200089C
:100050003B0200083B0200083B0200083B0200088C
:100060003B0200083B0200083B0200083B0200087C
:100070003B020008650700083B0200083B0200083D
:100080003B0200083B0200083B0200083B0200085C
:100090003B0200083B0200083B0200083B0200084C
:1000A0003B0200083B0200083B0200085113000815
:1000B000751300083B0200083B0200083B020008E1
:1000C0003B0200083B0200083B0200083B0200081C
:1000D0003B020008A516000869170008311800083F
:1000E0003B0200083B0200083B0200083B020008FC
:1000F0003B0200083B0200083B0200083B020008EC
:100100003B0200083B0200083B0200083B020008DB
:10011000851600083B0200083B0200083B0200086D
:100120003B0200083B0200083B0200083B020008BB
:1001300000F002F800F065F80AA090E8000C824494
:100140008344AAF10107DA4501D100F05AF8AFF271
:10015000090EBAE80F0013F0010F18BFFB1A43F0A5
:1001600001031847D4390100F43901000A444FF063
:10017000000C10F8013B13F0070408BF10F8014B06
:100180001D1108BF10F8015B641E05D010F8016B4B
:10019000641E01F8016BF9D113F0080F1EBF10F8AF
:1001A000014BAD1C0C1B09D16D1E58BF01F801CBD2
:1001B000FAD505E014F8016B01F8016B6D1EF9D555
:1001C0009142D6D37047000000230024002500266A
:1001D000103A28BF78C1FBD8520728BF30C148BFAA
:1001E0000B607047642900F0A180782900F0DA8064
:1001F000732900F01682002070471FB51FBD10B58F
:1002000010BD00F017FA1146FFF7F7FF02F05CF996
:1002100000F035FA03B4FFF7F2FF03BC01F080FCF5
:100220000948804709480047FEE7FEE7FEE7FEE78A
:10023000FEE7FEE7FEE7FEE7FEE7FEE704480549C6
:10024000054A064B70470000F11200083101000812
:1002500008E6002008EC002008E8002008E800205C
:10026000704700000FB41CB5074B06AA7B446946D3
:100270000090059800F0ABF90020694600F0BAF94B
:100280001CBC5DF814FB00008503000070B504463B
:1002900085690068C10601D5302600E02026C00728
:1002A00007D070BDD4E9012130469047206A401C38
:1002B00020626D1EF6D570BD70B504468569007864
:1002C000C00707D170BDD4E9012120209047206AE2
:1002D000401C20626D1EF6D570BD70B50C460546FB
:1002E000012A05D02878800600D5EA69002302E0BB
:1002F000012305E05B1C934202D2E05C0028F9D1A7
:10030000A869E618C01AA861286A18442862284615
:10031000FFF7BCFF04E0D5E9012114F8010B904779
:10032000B442F8D32846FFF7C7FF70BD2DE9F0416E
:100330000646002410687529314616A510D0AFF383
:100340000080002802DA404213A507E031688A07DE
:1003500001D512A502E0490704D511A5012401E049
:10036000AFF3008000210A2206F1240709E0B0FB68
:10037000F2FCB0FBF2F302FB1C003030785418465C
:10038000491C0028F3D123462A463046BDE8F041F7
:1003900000F0BFB8000000002D0000002B0000009E
:1003A0002000000070B504460D4621461068AFF3EA
:1003B00000802188090502D50F4A7A4402E00E4ADE
:1003C0007A440E32002104F1240305E000F00F0608
:1003D0000009965D5E54491C0028F7D1207800235F
:1003E000000704D5702D02D009B102231132204636
:1003F000BDE8704000F08DB8523701002DE9F0479C
:100400004FF0000A89460446C0F820A02046E16863
:100410008847002876D0252806D0D4E901219047C6
:10042000206A401C2062F1E7E168204600258847E9
:10043000C4F81CA006460027C4F818A02A2E09D02C
:10044000304601F066FB38B304EB8708303EC8F84D
:10045000186019E059F8041B204604EB87029161EB
:10046000E1688847012F064618D1E069002820DAA4
:1004700025F020051DE0D8F8180000EB800006EB01
:1004800040003038C8F818002046E1688847064622
:1004900001F03FFB0028EED1012F0AD02E2E08D10B
:1004A0002046E16888477F1C0646022F45F020055C
:1004B000C4DBA069002803DA404245F00105A061D1
:1004C000E80701D025F01005B6B1A6F141001928C2
:1004D00002D8203645F400654A463146204625605C
:1004E0004D46FFF77FFE58B1012806D0ED1D25F0DF
:1004F000070000F1080989E704E005F1040985E730
:1005000030468AE7206ABDE8F08770477047704739
:1005100070472DE9F0470D4699469246044600F192
:1005200024080168880604D5E06921F010012160E3
:1005300000E00120A84201DD471B00E00027A1697F
:100540007A1902EB0900081AA0612078C00602D4CB
:100550002046FFF79BFE002608E0D4E901211AF8A7
:1005600006009047206A401C761C20624E45F4DB52
:100570002078C0060AD52046FFF788FE06E0D4E9B9
:10058000012130209047206A401C2062381EA7F1CC
:100590000107F4DC07E0D4E9012118F805009047D1
:1005A000206A401C2062281EA5F10105F3DC2046CC
:1005B000FFF782FE2078000602D50220BDE8F08712
:1005C0000120FBE701694A1C02610878704700B509
:1005D0008FB0CDE901310021059105497944CDE97C
:1005E000031011466846FFF709FF0FB000BD000079
:1005F000E5FFFFFF0A6802F8010B0A60704710B5BB
:10060000436913B1AFF3008001E0FFF766FE0120FC
:1006100010BD127800F124010A7000224A700122F4
:10062000EDE711684FF0FF32E9E70000004870473E
:10063000A8E500207546FFF7F9FFAE4605006946BC
:10064000534620F00700854618B020B5FFF7F6FDA9
:10065000BDE820404FF000064FF000074FF00008C3
:100660004FF0000B21F00701AC46ACE8C009ACE844
:10067000C009ACE8C009ACE8C0098D46704710B5A8
:100680000446AFF300802046BDE81040FFF7C2BD2E
:1006900010B501F0CFFD10BD10B54FF4A06000F013
:1006A0008DFA01F059FA01F03DFA4FF4E13001F012
:1006B00009F84FF4E13001F067F84FF4E13001F050
:1006C000C7F84FF4E13001F017F902F0F7FB02F040
:1006D00061FA02F0FFF910BD00BFFEE738B505462C
:1006E0000BA000F099FD012409E0042040F253130F
:1006F00022B21021009020B201F014FC641C40F2E0
:10070000DA208442F1DB0CA000F086FD002038BD29
:1007100053797374656D20546F6F6C7320436C65EF
:1007200061722053637265656E2056312E302D3113
:100730003931303033000000436C656172207363DF
:100740007265656E20636F6D706C65746520776986
:1007500074686F757420616E79206572726F722E85
:10076000000000004FF400701049486092200863B8
:100770005E2048630E480088401C0D4908800846EA
:100780000088B0F5167F0ADB00200A490860084996
:1007900008800949086009480449C86304E003481F
:1007A000C06B5E300149C863704700000000024022
:1007B000380100203C010020400100205C010020A5
:1007C00001684FF6FE721140016000210160416036
:1007D0008160C1604B49884208D14A49083949685B
:1007E00041F00F01474A083A51608AE04549143107
:1007F000884208D143490839496841F0F001414A2B
:10080000083A51607DE03F492831884208D13D498E
:100810000839496841F470613A4A083A516070E019
:1008200038493C31884208D136490839496841F491
:100830007041344A083A516063E03249503188428D
:1008400008D130490839496841F470212D4A083AE5
:10085000516056E02B496431884208D12949083952
:10086000496841F47001274A083A516049E0254936
:100870007831884208D123490839496841F07061CC
:10088000204A083A51603CE01F49884206D1011FC6
:10089000096841F00F01021F116032E01A4914315A
:1008A000884208D11849091F096841F0F001164A29
:1008B000121F116025E014492831884208D11249DD
:1008C000091F096841F470610F4A121F116018E096
:1008D0000D493C31884208D10B49091F096841F490
:1008E0007041094A121F11600BE0074950318842DC
:1008F00007D10549091F096841F47021024A121FF6
:100900001160704708000240080402401AB10368F1
:100910000B43036002E003688B430360704710B52C
:100920000022026847F6F0739A430C6A8B682343EF
:100930000C6923434C6923438C692343CC692343CB
:100940004C6A23438C6A23431A430260CB6843609A
:100950000B6883604B68C36010BD704710B50446D8
:10096000002300BF0CE0E05C0D490978C1EBC10138
:1009700001EB81010B4A02EB4101C854581CC3B280
:10098000E05C0028EFD106490978C1EBC10101EB19
:100990008101044A02EB4101C85401F07DFE10BD03
:1009A0001F0000206EDE00202DE9F04102460025E8
:1009B0000026002000230024002791F803C00CF03B
:1009C0000F0591F803C00CF0100CBCF1000F03D020
:1009D00091F802C04CEA050591F800C0BCF1000F87
:1009E00031D0146800202BE04FF0010C0CFA00F31A
:1009F000B1F800C00CEA03069E4220D183004FF0FC
:100A00000F0C0CFA03F7BC4305FA03FC4CEA040490
:100A100091F803C0BCF1280F06D14FF0010C0CFA7D
:100A200000FCC2F814C00AE091F803C0BCF1480F02
:100A300005D14FF0010C0CFA00FCC2F810C0401CAC
:100A40000828D1D31460B1F800C0BCF1FF0F34DD29
:100A5000546800202EE000F1080C4FF0010808FA5D
:100A60000CF3B1F800C00CEA03069E4221D18300CA
:100A70004FF00F0C0CFA03F7BC4305FA03FC4CEAE9
:100A8000040491F803C0BCF1280F05D100F1080C53
:100A900008FA0CF8C2F8148091F803C0BCF1480FB2
:100AA00007D100F1080C4FF0010808FA0CF8C2F861
:100AB0001080401C0828CED35460BDE8F08141610D
:100AC00070470161704700BFFEE7000010B50248A3
:100AD00001F09EF810BD0000FCDD002000BFFEE725
:100AE00070B50546002400F015F809E000F009F89B
:100AF00001F066FB10B901F06BFB08B1012070BD7D
:100B0000F4E710B502F058F8FFF7E0FF01F0ECFE53
:100B100010BD000008B500F005FA00F0A1F90020B2
:100B20004FF4A2734FF49C721C210090102001F02E
:100B3000E7FA01F009FD00200249087048700F2013
:100B4000087108BD200100207047000070B5002129
:100B500000230F22C47804B3154C246804F4E06425
:100B6000C4F5E064210AC1F10403CA40447804FAE0
:100B700003F184781440214309010E4C0678A155F5
:100B8000047804F01F050124AC4005786D11AD0018
:100B900005F1E025C5F8004109E0047804F01F05DF
:100BA0000124AC40044D0678761145F8264070BD0E
:100BB0000CED00E000E400E080E100E002490143C8
:100BC000024A1160704700000000FA050CED00E0D9
:100BD0007047000029B1064A52690243044B5A612A
:100BE00004E0034A52698243014B5A617047000096
:100BF0000010024029B1064AD2690243044BDA616F
:100C000004E0034AD2698243014BDA617047000075
:100C10000010024029B1064A92690243044B9A61CE
:100C200004E0034A92698243014B9A6170470000D5
:100C30000010024030B500210022002400232D4D79
:100C40006D6805F00C0121B1042905D0082923D1D4
:100C500005E0294D056022E0274D05601FE0254D88
:100C60006D6805F47012234D6D6805F4803402251B
:100C700005EB92421CB9214D554305600BE01D4D1B
:100C80006D6805F400351DB11C4D5543056002E04B
:100C9000194D5543056002E0174D056000BF00BFC8
:100CA000144D6D6805F0F0010909154D6B5C056880
:100CB000DD4045600F4D6D6805F4E061090A104D97
:100CC0006B5C4568DD4085600A4D6D6805F46051D8
:100CD000C90A0B4D6B5C4568DD40C560054D6D680C
:100CE00005F44041890B074D6B5CC568B5FBF3F516
:100CF000056130BD0010024000127A0000093D007D
:100D0000460100205601002021B1028842F4005221
:100D1000028004E002884DF6FF731A40028070479B
:100D200021B1028842F04002028004E002884FF6BE
:100D3000BF731A400280704710B50022028802F487
:100D400041520B884C8823438C882343CC8823430F
:100D50000C8923434C8923438C892343CC89234327
:100D60001A430280838B4FF2FF74234083830B8AE4
:100D7000038210BD704710B500F002F810BD0000EE
:100D80000CB50020019000903348006840F480309A
:100D90003149086000BF3048006800F4003000901E
:100DA0000198401C0190009818B90198B0F5A06F07
:100DB000F1D12948006800F4003010B10120009002
:100DC00001E0002000900098012843D123480068EA
:100DD00040F01000214908600846006820F0030038
:100DE00008600846006840F0020008601A48406841
:100DF000194948600846406848600846406840F421
:100E0000806048600846406820F47C1048600846CE
:100E1000406840F4641048600846006840F0807004
:100E2000086000BF0C48006800F000700028F9D08E
:100E30000948406820F003000749486008464068B8
:100E400040F00200486000BF0348406800F00C001A
:100E50000828F9D10CBD000000100240002002401B
:100E600010B500230AA220214FF4A07001F06EF902
:100E7000002315A22C214FF4A07001F067F9002384
:100E800018A238214FF4A07001F060F910BD0000E5
:100E90004D6F75736520456E7669726F6E6D656E08
:100EA00074204D61702043726561746F72205631F9
:100EB0002E30203139313030322062793A207A6850
:100EC000616E67646F6E6700506F7765726564204E
:100ED000627920416D61646575732053797374651F
:100EE0006D2E0000436F6D6D756E69636174696F7F
:100EF0006E20506F7274203A554152543420313173
:100F00003532303062707320706173737468726F41
:100F1000756768203433334D687A20726164696F75
:100F20002E00000010B51AA000F076F926A000F0FF
:100F300073F933A000F070F940A000F06DF94EA0F5
:100F400000F06AF95BA000F067F969A000F064F9AD
:100F50006FA000F061F977A000F05EF97EA000F0CC
:100F60005BF986A000F058F98DA000F055F995A026
:100F700000F052F994A000F04FF992A000F04CF963
:100F80009FA000F049F98FA000F046F910BD0000C5
:100F900020205F5F5F20205F5F5F5F5F20205F5FDB
:100FA0005F5F2020202020205F5F5F5F5F5F5F5FCB
:100FB0005F5F5F5F2020202020205F5F5F5F202039
:100FC00020205F5F5F5F0000207C5C20205C7C2035
:100FD000202020205C7C202020205C202020207CE1
:100FE0005C202020205F5F5F5F2020205C2020208D
:100FF000207C5C2020205C2020205C2020205C00C5
:10100000205C205C202020202F5C202020202F5CD2
:101010002020205C2020205C205C2020205C2020E0
:10102000205C2020205C2020205C205C2020205C94
:101030002020205C2020205C0000000020205C207C
:101040005C2020205C205C2020205C205C20202074
:101050005C2020205C205C2020205C5F5F5F5C20A7
:1010600020205C2020205C205C2020205C5F5F5FD3
:101070005C2020205C0000002020205C205C5F5F62
:101080005F5C205C205F5F5C205C5F5F5F5C2020BA
:10109000205C205C5F5F5F5F5F5F5F5F5F5F5F5CE7
:1010A0002020205C205C5F5F5F5F5F5F5F5F5F5F52
:1010B0005F5C0000202020205C7C5F5F5F7C207CE8
:1010C0005F5F5F7C207C5F5F5F7C202020205C7CFA
:1010D0005F5F5F5F5F5F5F5F5F5F5F7C20202020FF
:1010E0005C7C5F5F5F5F5F5F5F5F5F5F5F7C000097
:1010F000202020205F5F5F5F5F5F5F5F5F5F20207A
:10110000202020205F5F5F5F5F5F5F5F5F5F0000A9
:101110002020202F202020205F5F5F5F5F5F5C200A
:101120002020207C5C202020205F5F5F2020205C2E
:101130000000000020207C5C205F5F5C205F5F5F20
:101140005F5F7C5F2020205C205C20205C5F5F5F15
:101150005C2020205C0000002020205C7C5F2020A0
:101160005F5F5F5F5F5F5F205C2020205C205C2012
:101170002020205F5F5F5F5F2F5F00002020202026
:101180002F5F5F5F5F5F5F5F5F5F2F207C202020AE
:10119000205C205C205F5F5F5F5F5F5F5F5F5C0084
:1011A0002020207C5F5F5F5F5F5F5F5F5F5F7C2F02
:1011B0002020202020205C7C5F5F5F5F5F5F5F5F9F
:1011C0005F5F7C00200000004D6F75736520456EE9
:1011D0007669726F6E6D656E74204D61702043721A
:1011E0006561746F722056312E30203139313030C4
:1011F000322062793A207A68616E67646F6E6700A8
:101200005061737320616E79206B657920746F2053
:10121000657869742E000000F0B593B0054600268D
:101220000027284601F02EFC044615E0002004E0CB
:101230003118695C01AA1154401C4228F8DB0020D7
:101240008DF8460001A8FFF789FBA4F1420084B2A3
:1012500006F1420086B20127412CE7DC74B1002080
:1012600004E03118695C01AA1154401CA042F8DB6B
:10127000002001A9085501A8FFF770FB13B0F0BDCD
:1012800008A0FFF7C9FF00BF0C48006800F4E06049
:101290000B490843001D09490860BFF34F8F00BF89
:1012A00000BFFEE753797374656D205265626F6FFE
:1012B00074696E67202E2E2E000000000CED00E0F9
:1012C0000000FA05042808D14FF0E021096941F037
:1012D00004014FF0E022116107E04FF0E0210969BD
:1012E00021F004014FF0E0221161704770470000C7
:1012F00010B51348006840F0010011490860084625
:101300004068104908400E494860084600680E4988
:1013100008400B4908600846006820F480200860F7
:101320000846406820F4FE0048604FF41F008860C3
:10133000FFF721FD4FF000600449086010BD000078
:10134000001002400000FFF8FFFFF6FE08ED00E08D
:101350000548006810B19320044908634FF6EF7008
:1013600003490880704700003C0100200000024053
:10137000102C01400120034908604FF6FD708107E1
:10138000088270473C01002021B1028842F001022E
:10139000028004E002884FF6FE731A400280704714
:1013A00031B1B0F8442042F40042A0F8442005E0F6
:1013B000B0F84420C2F30E02A0F8442070471AB1DE
:1013C00083890B43838102E083898B438381704748
:1013D00070B5002400220023058C4FF6FE763540C0
:1013E0000584028C8388048B4FF68F752C40B51EC4
:1013F0002C400D882C43751E2A400D892A434D88A8
:101400002A43144DA8420BD0134DA84208D0134DC7
:10141000A84205D0124DA84202D0124DA84213D1C5
:101420004FF6F7752A404D892A434FF6FB752A403F
:101430008D882A434FF6FF652B404FF6FF552B4012
:101440008D892B43CD892B4383800483CD8885866A
:10145000028470BD002C0140003401400040014076
:10146000004401400048014070B5002400220023E0
:10147000058C4FF6EF7635400584028C8388048B0B
:1014800048F6FF752C404FF6FF452C400D884FF66F
:10149000FF7606EA05252C434FF6DF752A400D89B5
:1014A00006EA05152A434D8806EA05152A43154D17
:1014B000A84202D0144DA8421DD14FF67F752A4094
:1014C0004D894FF6FF7606EA05152A434FF6BF759C
:1014D0002A408D8806EA05152A434FF6FF352B4032
:1014E0004FF2FF752B408D8906EA85052B43CD8988
:1014F00006EA85052B4383800483CD880587028413
:1015000070BD0000002C01400034014070B5002285
:1015100000230024058C4EF6FF7635400584038CAD
:101520008488828B48F6FF752A404FF6FF452A4093
:101530000D884FF6FF7606EA05252A434DF6FF751E
:101540002B400D8906EA05352B434D8806EA053503
:101550002B430B4DA84202D00A4DA84208D14BF6AE
:10156000FF752C408D894FF6FF7606EA85152C43D2
:1015700084808283CD88A0F84050038470BD000031
:10158000002C0140003401400A46002101894FF639
:101590008F73194011430181704702894FF67F73A1
:1015A0001A40028102890A430281704782884FF6FD
:1015B0008F731A40828082880A4382807047028932
:1015C0004FF6F8731A40028102890A43028170477C
:1015D000002202881D4B98420ED01D4B98420BD022
:1015E000B0F1804F08D01B4B984205D01A4B98425F
:1015F00002D01A4B984204D14FF68F731A404B8891
:101600001A43174B984207D0164B984204D04FF616
:10161000FF431A40CB881A4302808B8883850B884E
:1016200003850A4B98420BD0094B984208D00E4BC9
:10163000984205D00D4B984202D00D4B984201D1F3
:101640000B7A03860123838270470000002C01403F
:10165000003401400004004000080040000C00403D
:1016600000100040001400400040014000440140D0
:101670000048014010B501F0A9FA10BD10B501F005
:1016800021FB10BD10B50648008800F0200030B1E5
:10169000034800F037FAC4B2204601F085FB10BDC4
:1016A000004C004010B50648008800F0200030B122
:1016B000034800F027FAC4B2204601F0D3FB10BD66
:1016C0000038014010B586B00446012144F2040000
:1016D000FFF7A0FA4FF40070ADF8140003208DF866
:1016E000160018208DF8170005A91D48FFF75CF9B2
:1016F0004FF48060ADF8140004208DF8170005A9A0
:101700001748FFF751F925208DF8000002208DF8C9
:10171000010000208DF8020001208DF803006846CA
:10172000FFF714FA01940020ADF80800ADF80A00A4
:10173000ADF80C00ADF810000C20ADF80E0001A9BA
:10174000084800F073F9012240F22551054800F0E5
:1017500048F90121034800F038F906B010BD000037
:10176000000801400038014010B50648008800F02C
:10177000200030B1034800F0C5F9C4B2204601F0A2
:10178000BDFC10BD0044004010B586B004460121E8
:101790000520FFF73FFA01212248FFF72BFA082026
:1017A000ADF8140004208DF8170005A91E48FFF7B6
:1017B000FBF80420ADF8140003208DF81600182063
:1017C0008DF8170005A91848FFF7EEF826208DF8C8
:1017D000100003208DF811008DF8120001208DF803
:1017E000130004A8FFF7B2F900940020ADF804003C
:1017F000ADF80600ADF80800ADF80C000C20ADF80F
:101800000A006946094800F011F9012240F2255109
:10181000064800F0E6F80121044800F0D6F806B0CA
:1018200010BD00000100020000080140004400401B
:1018300010B50648008800F0200030B1034800F0E1
:1018400061F9C4B2204600F0FBFC10BD0048004026
:1018500010B586B0044601210820FFF7DBF901210D
:101860008804FFF7C7F94FF40060ADF800000420CA
:101870008DF8030069461E48FFF796F84FF4806024
:10188000ADF8000003208DF8020018208DF8030049
:1018900069461748FFF788F802940020ADF80C005D
:1018A000ADF80E00ADF81000ADF814000C20ADF846
:1018B000120002A90F4800F0B9F8012240F22551A8
:1018C0000C4800F08EF801210A4800F07EF827202D
:1018D0008DF8040000208DF8050002208DF8060028
:1018E00001208DF8070001A8FFF730F906B010BD00
:1018F000000C01400048004010B586B004460121AC
:101900001020FFF787F901210846FFF783F901212D
:10191000C804FFF76FF94FF48060ADF81400182089
:101920008DF8170003208DF8160005A92048FFF751
:101930003BF84FF40060ADF8140048208DF8170014
:1019400003208DF8160005A91948FFF72DF834205B
:101950008DF8100000208DF8110002208DF8120083
:1019600001208DF8130004A8FFF7F0F80094002080
:10197000ADF80400ADF80600ADF80800ADF80C00B5
:101980000C20ADF80A0069460A4800F04FF8012122
:10199000084800F01AF84021064800F00DF801222E
:1019A00040F22551034800F01CF806B010BD0000BD
:1019B00000100140004C004001F40072B2F5007FBD
:1019C00000D100BFCA430280704721B1828942F42E
:1019D0000052828104E082894DF6FF731A408281B1
:1019E0007047F0B50346002400260025002040F68D
:1019F0006A17B94200D100BF1846C1F3421401F082
:101A00001F06012707FA06F5012C01D10C3004E06E
:101A1000022C01D1103000E014301AB107682F43B6
:101A2000076002E00768AF430760F0BD2DE9F047AB
:101A300086B005460E460024A24600BFA1460027F8
:101A4000B08900B100BF2F462C8A4CF6FF700440CD
:101A5000F08804432C82AC894EF6F3100440B08821
:101A600031890843718908430443AC81AC8A4FF63D
:101A7000FF400440B0890443AC8201A8FFF7DAF8C4
:101A80001F48874202D1DDF810A001E0DDF80CA06C
:101A9000A88900F4004040B10AEBCA0000EB0A102C
:101AA00031684900B0FBF1F807E00AEBCA0000EB2F
:101AB0000A1031688900B0FBF1F86420B8FBF0F03F
:101AC00004012009642101FB1089A88900F4004069
:101AD00040B1322000EBC900B0FBF1F000F007008C
:101AE000044308E0322000EB09106421B0FBF1F060
:101AF00000F00F0004432C8106B0BDE8F087000021
:101B00000038014001468888C0F30800704700BFD4
:101B1000FEE730380A2801D20120704700207047C4
:101B200000BF704708B501210802FFF773F81020C5
:101B30008DF803004020ADF8000003208DF802006E
:101B400069460448FEF730FF40210248FEF7B7FF20
:101B500008BD00000020014010B56FF00400FFF741
:101B6000B1FB0A4800680A49B0FBF1F00949087066
:101B70000846007800EB4001C1EBC0104FF6FF7142
:101B800001EAC0000449088010BD000000000020E8
:101B900000127A0034010020360100202DE9F041C6
:101BA00092B005460F4600262BE04FF000080024B7
:101BB00013E057F82600005D08B94FF00108B8F1AE
:101BC000000F05D157F82600005D0DF8040002E073
:101BD00020200DF80400601CC4B295F86D00A042EE
:101BE000E7DC6A88521D06EB860302EB430211B262
:101BF0002A88521D10B200236A4600F0A7FA701C12
:101C0000C6B295F87100B042CFDC12B0BDE8F081E9
:101C1000002180F86C10014908607047180000200E
:101C2000F8B50446002000906588A68835442BB29C
:101C30002588E68835442AB2658829B2258828B2E5
:101C400000F05EFAF8BD00002DE9F04F89B00446BF
:101C500094464CB1B4F800A08A440FFA8AF1B4F863
:101C600002A0E2440FFA8AFC4FEAD308B3EBC80F94
:101C700001D908F101084FEAD10ACDF818A0DDF822
:101C800018A0A1EBCA0ACDF81CA05CB901EB030AAD
:101C9000BAF5387F04DBC1F5387A1FFA8AF510E00F
:101CA0009DB20EE001EB030AB4F904B08B44DA45AF
:101CB00006DBB4F804A0AAEB010A1FFA8AF500E0DB
:101CC0009DB20022A8E002EB0C0ABAF5167F02DBF7
:101CD00009B0BDE8F08F4FEAD10A0CEB020BCBEB59
:101CE0000B1E0EEB4B1B0AEB4B0ACDF814A04E4E0D
:101CF000DDF814A056444FF0085A0AEB461BDDF8F5
:101D00001CA0CAF1070A0BEB8A004FF0085A0AEB35
:101D1000461A0AF11C0ACDF80CA0DDF84CA002FB13
:101D200008AACDF800A000BF4FF00009CA46CDF8C0
:101D300020A069E000F0E00ACDF808A0B9F1000A9F
:101D400009F1010B1FFA8BF90BD1DDF800A09AF80D
:101D500000A0CDF810A0DDF800A00AF1010ACDF82E
:101D600000A009F00709DDF810A00AF0800ABAF116
:101D7000000F01D0012700E00027DDF850A0BAF1E4
:101D8000050F22D2DFE80AF003050C131A000770D2
:101D90001BE090F800A08AEA070A80F800A014E08F
:101DA00090F800A00AEA070A80F800A00DE090F879
:101DB00000A04AEA070A80F800A006E090F800A018
:101DC0002AEA070A80F800A000BF00BF001F00F049
:101DD000E00ACDF804A0DDE901ABD34504D0DDF87D
:101DE0000CA00AF120000390DDF810A04FEA4A6A27
:101DF0004FEA1A6ACDF810A0DDF820A00AF1010A16
:101E00001FFA8AFACDF820A0DDF820A0AA4591DBC0
:101E100002F1010A1FFA8AF2DDF848A05245FFF6E6
:101E200052AF00BF54E700005C01002010B5002055
:101E300010E000210AE00022C0EB001303EB401386
:101E4000064C04EB43035A544A1C91B25E29F2DB60
:101E5000421C90B2B0F5167FEBDB10BD5C01002098
:101E60002DE9F04706460F4690469A464FEA48004D
:101E7000C0F103090024454650E0EA1991B2A219C5
:101E800090B2524600F0D2F86A423A4491B26242AD
:101E9000324490B2524600F0C9F8EA1991B2624257
:101EA000324490B2524600F0C1F86A423A4491B2CC
:101EB000A21990B2524600F0B9F8E21991B2AA19EB
:101EC00090B2524600F0B2F8E21991B26A4232443E
:101ED00090B2524600F0AAF862423A4491B26A4285
:101EE000324490B2524600F0A1F862423A4491B2B4
:101EF000AA1990B2524600F099F8B9F1000F05DA2C
:101F0000042000FB049000F1060906E06D1E601B32
:101F1000042101FB009000F10A09641CAC42ACDD15
:101F2000BDE8F0872DE9FF4F82B0012001900090BD
:101F300002990498401A04B203990598401A05B210
:101F4000002C04DA604204B24FF0FF300190002D03
:101F500004DA684205B24FF0FF300090029FDDF8CE
:101F60000C80AC422FDD1FFA88F1B8B20F9A00F056
:101F70005DF8C4EB450006B2281B40000FFA80FA5A
:101F800068000FFA80FB4FF0000919E0002E07DB14
:101F9000009840440FFA80F806EB0A0006B202E00F
:101FA00006EB0B0006B20198384407B21FFA88F11D
:101FB000B8B20F9A00F03AF809F101000FFA80F96F
:101FC000A145E3DB2EE01FFA88F1B8B20F9A00F0CA
:101FD0002DF8C5EB440006B2601B40000FFA80FAF2
:101FE00060000FFA80FB4FF0000919E0002E06DBBD
:101FF0000198384407B206EB0A0006B202E006EB8D
:102000000B0006B2009840440FFA80F81FFA88F1DE
:10201000B8B20F9A00F00AF809F101000FFA80F93E
:10202000A945E3DB06B0BDE8F08F0000F0B503463C
:102030001446B3F5387F02DAB1F5167F00DBF0BD48
:10204000D810A3EBC006B5B2802646FA05F234B12B
:10205000012C17D0022C28D0042C4CD138E0C1EB35
:10206000011606EB4116254F07EB4606365C164374
:10207000C1EB011707EB4117DFF880C00CEB4707F6
:102080003E5438E0C1EB011606EB41161B4F07EB3F
:102090004606365C5640C1EB011707EB4117DFF8E7
:1020A0005CC00CEB47073E5425E0C1EB011606EB84
:1020B0004116124F07EB4606365C1640C1EB01177E
:1020C00007EB4117DFF834C00CEB47073E5412E032
:1020D000C1EB011606EB4116084F07EB4606365CCE
:1020E0009643C1EB011707EB4117DFF810C00CEB6B
:1020F00047073E5400BF00BF00BFA0E75C010020BF
:102100002DE9F84105460E4617469846079C33468A
:102110003A46314628460094FFF704FF43463A46C4
:10212000414628460094FFF7FDFE43462A463146C5
:1021300028460094FFF7F6FE43463A4631463846B5
:102140000094FFF7EFFEBDE8F88100002DE9F04FA5
:1021500085B00746884614469946204600F092FC12
:102160000490BDB24FF0000A23E014F8016B202E5A
:102170001BDBA6F1200000EBC0001FFA80FB0F481C
:10218000584403900921039806234246CDE90109EA
:10219000009129B20020FFF757FDA81D85B2B5F5C3
:1021A000387F02DB05B0BDE8F08F0AF101001FFAAD
:1021B00080FA04988245D8DB00BFF3E708310008B5
:1021C000024908780021014A117070471C00002064
:1021D000024948780021014A517070471C000020D4
:1021E00030B58DB0044600200CE0215C11B1215CBB
:1021F000202903D100210DF8001005E0215C0DF825
:102200000010401C3228F0DB00BF00250BE008481E
:1022100000EB0510011D684600F03EFC10B1E8B26D
:102220000DB030BD6D1C032DF1DB0420F8E700007C
:1022300080000020FFF722FA01E0FFF71BFAFCE71D
:1022400010B52D49096891F86C10002953D1202848
:102250001DDB2949096891F86E10274A126892F827
:102260006D20914210DA2449096891F86E202249C4
:10227000096891F86E10491C1F4B1B6883F86E109B
:102280001D490968083188541C49087033E01B490E
:1022900048700E282ED2DFE800F02D07080922230F
:1022A00024252D2D272D2D2624E023E01249096811
:1022B00091F86E10002911DD00220F49096891F88C
:1022C0006E300D49096891F86E10491E0A4C246859
:1022D00084F86E10084909680831CA540AE009E018
:1022E00008E007E006E000BF0121034A126882F817
:1022F0006C1000BF00BF10BD180000201C000020A3
:1023000000B599B05648007890B90120544908703A
:1023100054A0FEF781FF00F0BFF953480078002871
:1023200003DD51480078401E00E017204E49087038
:102330004E480078F0B1002004E04D49095C4D4A58
:102340001154401C1228F8DB484801784A480078AC
:102350001230484A115448480078282803DA464881
:102360000078401C01E04448007843490870002090
:102370003E49087000201FE03F4909781231884229
:102380000CDA3C49095C384A1278C2EBC20202EB13
:1023900082023A4B03EB420211540CE00021324A14
:1023A0001278C2EBC20202EB8202344B03EB420210
:1023B0001154304A1154401C4128DDDB2B48407831
:1023C00000284AD0294840780E2842D2DFE800F0A1
:1023D00041070809191A1B1C41411E41411D38E0E3
:1023E00037E02548007801280ADB23480078401EA2
:1023F0002149087000212048007812301D4A1154EC
:1024000027E026E025E024E023E000BF00F044F9C7
:1024100001201B49096881F86C00002019490870E7
:10242000154908700E490870124A123216A1684602
:10243000FDF718FF6846FEF7EFFE002006E000F10A
:1024400012010C4A515C154A1154401C2828F6DB35
:1024500000BF00BF00200549487019B000BD000052
:102460007A000020200000001F0000201C00002037
:102470002100002033000020790000206EDE0020C3
:10248000180000201E000020536561726368696EA9
:102490006720222573222E2E2E00000060E50020EA
:1024A00070B505462846FFF79BFE0446042C07D06E
:1024B000044800EB0410016828468847012070BDDD
:1024C0000020FCE780000020FEF7E6F801E0FEF7C0
:1024D000DFF8FCE770B504460D4604EBC40010219C
:1024E00001EB4000801D84B205EBC5004FF4A071E4
:1024F000A1EB4000103885B2114A1288D21D91B26A
:10250000104A1288D21D90B204230322FFF7A8FCC0
:102510000B4A1288D21D91B20A4A1288D21D90B27B
:102520000022FFF783FDEA1D91B2E21D90B2002365
:102530000322FFF795FC034804800148058070BD25
:1025400028010020260100202DE9F041002634E07A
:1025500000272FE006EBC600102101EB4000801D94
:1025600084B207EBC7004FF4A071A1EB4000103814
:1025700085B2AA1E91B204F1100290B20022FFF7B8
:1025800055FDAA1E91B204F1110290B20022FFF78C
:102590004DFD6A1E91B204F1100290B20022FFF7C5
:1025A00045FD6A1E91B204F1110290B20022FFF7BC
:1025B0003DFD7F1C0F2FCDDB761C0F2EC8DBBDE849
:1025C000F0812DE9F84F81468A46904609EBC90013
:1025D000102101EB4000841D0AEBCA004FF4A071EA
:1025E000A1EB4000103885B204F10F0086B205F16E
:1025F0000F0087B26FEA080000F0FF0804202BB23A
:1026000032B229B2009020B2FFF78CFC04203BB21A
:1026100032B239B2009020B2FFF784FC04203BB202
:1026200022B229B2009020B2FFF77CFC04203BB21A
:1026300032B229B2009030B2FFF774FC08F0020009
:1026400038B100202BB232B229B2009020B2FFF78D
:1026500069FC08F0080038B100203BB232B239B250
:10266000009020B2FFF75EFC08F0040038B10020B3
:102670003BB222B229B2009020B2FFF753FC08F01F
:10268000010038B100203BB232B229B2009030B222
:10269000FFF748FCBDE8F88F2148007870B9214861
:1026A0000078401C1F49087008460078182836D169
:1026B0000020087001201A49087030E0194800789D
:1026C000172801DB002002E016480078401C15495D
:1026D0000870002021E013490978014417290DDC16
:1026E000104909780144C1EBC10101EB81010E4A97
:1026F00002EB41010D4A42F820100DE0094909782A
:1027000001441839C1EBC10101EB8101064A02EB1A
:102710004101064A42F82010401C1828DBDB7047B4
:10272000200000201F0000206EDE002000E50020B9
:1027300003B599B09DF8642037A16846FDF792FD76
:1027400000236A4658214FF4A070FFF7FFFC9DF864
:10275000652038A16846FDF785FD00236A4664219F
:102760004FF4A070FFF7F2FCBDF8662038A1684670
:10277000FDF778FD00236A4670214FF4A070FFF743
:10278000E5FC9DF8682039A16846FDF76BFD002344
:102790006A4688214FF4A070FFF7D8FC9DF86800C6
:1027A00000F0010238A16846FDF75CFD00236A468F
:1027B000A0214800FFF7CAFC9DF86800C0F3400262
:1027C00037A16846FDF74EFD00236A46AC214FF461
:1027D000A070FFF7BBFC9DF86800C0F3800236A133
:1027E0006846FDF73FFD00236A46B8214FF4A0700C
:1027F000FFF7ACFC9DF86800C0F3C00234A1684646
:10280000FDF730FD00236A46C4214FF4A070FFF7A6
:102810009DFC1BB000BD000041475620506F7369FE
:1028200074696F6E202058203D205B202533642082
:102830005D00000041475620506F736974696F6EE8
:10284000202079203D205B20253364205D0000009E
:1028500041475620506F736974696F6E2074682009
:102860003D205B20253364205D0000006F6273749F
:1028700061636C6520636F6465203D205B20307868
:10288000302558205D0000005468203D2030202075
:102890002077616C6C203D205B202564205D00006A
:1028A0005468203D203930202077616C6C203D2019
:1028B0005B202564205D00005468203D20313830C5
:1028C0002077616C6C203D205B202564205D00003A
:1028D0005468203D203237302077616C6C203D20D9
:1028E0005B202564205D00001CB51D4800781D4953
:1028F0000978884211D11A4840781A4949788842A3
:102900000BD11748408817494988884205D1144897
:10291000007914490979884221D011480168009151
:102920008088ADF80400DDE90001FFF701FF0C4BE2
:102930001A7959781878FFF744FE094A51781078C7
:10294000FFF7C8FD0648007806490870044840783B
:1029500048700348408848800148007908711CBDD0
:10296000200100202C01002000B593B00121084671
:10297000FEF730F9012141F20500FEF74BF9802006
:10298000ADF8040018208DF8070003208DF806002C
:1029900001A93848FEF708F800213748FEF7C0F9CA
:1029A0003648FDF70DFF34480C3002903448039050
:1029B000102004905E200590002006908020079053
:1029C0000020089009900A900B900C9002A92B48C7
:1029D000FDF7A5FF4FF44040ADF834004FF482708E
:1029E000ADF836000020ADF83800ADF83A0001200F
:1029F000ADF83C004002ADF83E000820ADF84000C4
:102A00000020ADF842000720ADF844000DA91A4897
:102A1000FEF792F900211848FEF776F901211648D1
:102A2000FEF77EF91448808840F002001249888041
:102A30000D208DF8480000208DF849008DF84A00DF
:102A400001208DF84B0012A8FEF780F80B483038B3
:102A5000006B20F001000949303908635E204863AB
:102A60000748C863012202210448FDF74FFF13B055
:102A700000BD00000008014000300140300002406D
:102A80005C0100200146002201E0521C491C08782C
:102A90000028FAD190B27047F0B505460C4628469A
:102AA000FFF7F0FF06462046FFF7ECFF0746BE4261
:102AB0000DD1002307E0E85CE15C884201D00020F2
:102AC000F0BD581C83B2B342F5DB0120F8E70020CB
:102AD000F6E700000EB500204FF4157340F2DA223D
:102AE00001460090FFF70CFB00200F2340F2DA2292
:102AF00019460090FFF716FA00204FF4AA7340F22F
:102B0000DA2219460090FFF70DFA00230DA20521E5
:102B10004FF41170FFF71AFB002311A2052108469C
:102B2000FFF714FB00201A494FF480721346CDE9D9
:102B3000002102904FF4AA724FF4ED71FFF784F870
:102B40000EBD0000436F70797269676874205A681F
:102B5000616E67446F6E67203230313800000000CC
:102B60005465726D696E616C202D20416D616465E4
:102B700075732053797374656D205B76322E37360A
:102B80002E3138303832392D3139313030325D0024
:102B90001053000838B500240AE004204FF41673DF
:102BA00022B20021009020B2FFF7BCF9601C84B271
:102BB000B4F5437FF1DB38BD10B502490248FEF79A
:102BC000EDFF10BD00E50020FCDD002010B58EB04B
:102BD0001848007810B1012823D11DE01648FFF7EE
:102BE0005FFC04465CB9144A14A101A8FDF73AFB46
:102BF00017A0FEF711FB01A8FEF70EFB08E0621E0E
:102C000021A101A8FDF72EFB01A8FEF705FB00BFDF
:102C100001200849087008E0FDF758FFFFF770FB36
:102C200003E022A0FEF7F8FA00BF00BFFFF7C4FFE1
:102C30000EB010BD1E00002060E50020222573228A
:102C4000204E6F7420696E7374616C6C65642E0025
:102C5000506C6561736520636865636B20616E64A9
:102C60002072652D656E7465722E5B756E6B6E6F6E
:102C7000776E20636F6D6D616E64206F7220667574
:102C80006E6374696F6E5D0050726F6772616D2064
:102C900068617320656E6465642052657475726E38
:102CA00020436F64652025642E0000007465726DFA
:102CB000696E616C207374617465206572726F72E5
:102CC0002E00000010B503201C49088040F2571068
:102CD0004880FA2088804FF4EA70C880002081F88C
:102CE0007000462081F86D00012081F86F001820E7
:102CF00081F8710012A0FEF78FFA1BA0FEF78CFA84
:102D00000E48FEF78DFF0D48FEF782FF0120224995
:102D10000870002021490870487000BF0AE0C0EB2D
:102D2000C00101EB81011E4A02EB41011D4A42F83C
:102D30002010401C1828F2DB10BD0000FCDD002034
:102D400048656C6C6F212049276D204D616B69735C
:102D500065204B75726973752E20796F726F736879
:102D6000696B757E20000000506C6561736520659D
:102D70006E746572202268656C702220746F2073F7
:102D800065652074686520636F6D6D616E64206C8D
:102D90006973742E000000001E0000201C0000203B
:102DA0006EDE002000E500203C2806D10021294AE3
:102DB00011700121284A11704BE03E2836D1264976
:102DC000097801292CD1254949783039234A1278CC
:102DD000303A02EB820201EB4201214A11701F4995
:102DE000097930391D4AD278303A02EB820201EB80
:102DF00042011B4A51701949897930396422514383
:102E0000164AD279303A02EB820201EB42021349B0
:102E1000097A30391144124A51801049897A117166
:102E200000210C4A11700C4A117012E00A4909780D
:102E300001290ED10949074A1278885405490978B1
:102E4000132901DB002102E002490978491C014AEB
:102E5000117070472A0100202B01002092E500200C
:102E6000200100207047000008B501210420FDF773
:102E7000D1FE01210820FDF7CDFE10208DF80300C2
:102E80004FF47040ADF8000003208DF80200694651
:102E90000848FDF789FD4FF48070ADF800006946E1
:102EA0000548FDF781FD4FF470410248FDF709FE2A
:102EB00008BD0000000C01400008014010B5FFF7FC
:102EC000D3FFFFF751FD00F003F8FEF7AFFF10BD91
:102ED000F0B589B00024002600250027012140F626
:102EE0000400FDF797FE01210846FDF783FE4FF42D
:102EF0008170ADF8200018208DF8230003208DF894
:102F0000220008A95D48FDF74FFD40F6BA644FF472
:102F1000A07640F2C1250020ADF81000ADF81200F7
:102F2000ADF81440ADF816008DF8180004A9544807
:102F3000FEF74EFB7020ADF800000120ADF8020056
:102F40000420ADF80400ADF806600220ADF80800DA
:102F50000020ADF80A00ADF80C004FF48070ADF819
:102F60000E0069464648FEF733FA2020ADF800000F
:102F7000ADF8065069464248FEF7C8FA01214048BC
:102F8000FEF70EFA80213E48FEF707FB20213C4861
:102F9000FEF70CFB05218807FEF711FB00216007F7
:102FA000FEF7F2FA4FF41C74012518270020ADF843
:102FB0001000ADF81200ADF81440ADF816008DF811
:102FC000180004A9A807FEF703FB7020ADF8000065
:102FD0000120ADF802000420ADF80400ADF8065061
:102FE0000220ADF808000020ADF80A00ADF80C0092
:102FF0002802ADF80E0069468005FEF735FA20205C
:10300000ADF80000ADF8067069464006FEF7E0F93D
:1030100001218807FEF7C4F91C208DF81C0001204F
:103020008DF81D0000208DF81E0001208DF81F0076
:1030300007A8FDF78BFD012202214807FEF7BFF923
:103040001B208DF81C0001208DF81D0000208DF83C
:103050001E0001208DF81F0007A8FDF777FD012253
:1030600010210748FEF7ABF901218807FEF78CF91C
:1030700001210348FEF788F909B0F0BD00080140BE
:10308000002C014031B59DF800000D2808D11948E9
:103090000078401C1749087000201749087027E085
:1030A0001548007800EB40004FF41171B1EB400F70
:1030B00000DA38BD0F48007800EB80004FF42F7124
:1030C000B1EB400F00DAF4E70A4A127802EB820211
:1030D000B42303EB4201084A13781278521C064CC1
:1030E000227003EB4302500000236A46FFF72EF8DC
:1030F00000BFDEE7150000201400002010B50446D4
:103100002046FFF7BFFF10BD0000000000000000D8
:10311000000020202020200020000050500000004F
:10312000000000000050F850F8500000002078A087
:103130007028F0200000C8D02020205898000020DF
:10314000502040A8987000002020200000000000BF
:1031500000204080808040200000201008080810D7
:1031600020000000A870F870A8000000002020F8DF
:10317000202000000000000000202040000000008F
:1031800000700000000000000000000000200000AF
:10319000101020202040400000708888A888887087
:1031A00000002060202020207000007088087080BF
:1031B00080F80000708808300888700000103050D7
:1031C00090F810100000F08080F008887000003047
:1031D0004080B0C888700000F8081020408080004F
:1031E00000708888708888700000708888780888E7
:1031F000700000003030003030000000003030003F
:10320000303060000010204080402010000000009E
:10321000F800F800000000402010081020400000D6
:103220007088081020002000007088B8A8B8807846
:10323000000070888888F888880000F08888F08806
:1032400088F00000708880808088700000F0888896
:10325000888888F00000F88080F08080F80000F80E
:103260008080F08080800000708880B8888870003E
:1032700000888888F8888888000070202020202016
:103280007000000808080888887000008890A0C0B6
:10329000A090880000808080808080F8000088D81E
:1032A000A888888888000088C8A89888888800002E
:1032B000708888888888700000F08888F080808016
:1032C000000070888888A890680000F08888F0A0C6
:1032D00090880000708880700888700000F82020B6
:1032E0002020202000008888888888887000008836
:1032F000888888885020000088888888A8A870005E
:1033000000888850205088880000888888502020B5
:10331000200000F80810204080F800007040404075
:10332000404070000040402020201010000070102D
:1033300010101010700000205080000000000000ED
:10334000000000000000F800002020100000000035
:103350000000000070087898680000008080F08805
:1033600088F0000000007880808078000000080865
:1033700078888878000000007088F0807000003045
:1033800040406040404000000000788878087000AD
:10339000008080B0C888888800002000602020203D
:1033A000700000100030101090600000808890A025
:1033B000E0908800006020202020207000000000A5
:1033C000D0A8A8A8A800000000D0C888888800005D
:1033D0000000708888887000000000E09090E08015
:1033E00080000000709090701010000000D06040CD
:1033F00040E00000000070806008E00000004040F5
:10340000F040502000000000888888986800000084
:1034100000888888502000000000A8A8A8A85000B4
:10342000000000D8502050D800000000909070108C
:103430009060000000F0204080F00000102020404C
:10344000202010000020202020202020000020101C
:1034500010081010200000000040A810000000001C
:1034600000000000000000003030303130323033D6
:103470003034303530363037303830393130313122
:103480003132313331343135313631373138313908
:103490003230323132323233323432353236323700
:1034A00032383239416D61646575735F5379737475
:1034B000656D5F56322E36370000000000000000B8
:1034C00000000000000000000000000000000000FC
:1034D00000000000000000000000000000000000EC
:1034E000436F70797269676874205A68616E6744C7
:1034F0006F6E6720323031382041756720462E4785
:103500002E204C61622E0000000000000000000030
:1035100000000000000000000000000043505520A3
:1035200020203A2041524D20436F727465785F4DE0
:103530003328746D29203132384D487A28382A31A1
:1035400036292053544D3332463130335A455436A0
:10355000000000000000000056436F7265203A2012
:10356000332E335600000000000000000000000071
:10357000000000000000000000000000000000004B
:10358000000000000000000000000000000000003B
:10359000000000005370656564203A203132384DD8
:1035A000687A20384D687A5F5854414C2D2D2D5241
:1035B00043435F434647525F504C4C4D554C4C3152
:1035C00036000000000000000000000000000000C5
:1035D000464C415348203A203531324B42000000DE
:1035E00000000000000000000000000000000000DB
:1035F00000000000000000000000000000000000CB
:103600000000000000000000000000005352414D87
:1036100020203A2036344B42000000000000000019
:10362000000000000000000000000000000000009A
:10363000000000000000000000000000000000008A
:103640000000000000000000522E502E20203A20E2
:10365000434C4B3A38303058363030203534485AA5
:103660002028444C503A37323058353830203534E1
:103670002E33485A2900000000000000000000001E
:1036800000000000472E4D2E20203A2035323137E1
:1036900030206279746573000000000000000000B3
:1036A000000000000000000000000000000000001A
:1036B000000000000000000000000000000000000A
:1036C000462E432E20203A20416D65726963616E5B
:1036D000205374616E6461726420436F6465206678
:1036E0006F7220496E666F726D6174696F6E2049EA
:1036F0006E7465726368616E67650000416D616438
:103700006575732073797374656D20617574686F66
:1037100072203A205A68616E67446F6E672E2045AA
:103720004C2050535920434F4E47524F4F000000FA
:103730000000000000000000000000000000000089
:1037400000004F7065726174696E672073797374DD
:10375000656D2076657273696F6E2056322E37362E
:103760002E204D616B697365204B657269737520FE
:103770007361696B6F7500000000000000000000BD
:103780000000000000000000436F707972696768F4
:1037900074205A68616E67446F6E6720323031382A
:1037A0002046757475726520476164676574204CA6
:1037B00061626F7261746F72792E00000000000008
:1037C000000000000000000000000000000053792D
:1037D0007374656D20636F6E666967657261746985
:1037E0006F6E20696E666F726D6174696F6E203ADC
:1037F00000000000000000000000000000000000C9
:1038000000000000000000000000000000000000B8
:1038100000000000537973434C4B3A000000000055
:103820000000000000000000000000000000000098
:103830000000000000000000000000000000000088
:103840000000000000000000000000000000000078
:1038500000000000000000000000202020202020A8
:10386000205854414C2020203A20384D487A2E2DA3
:103870002D2D2D2D2D2D2D2D2D2D2D2D2D2D2D2D78
:103880002D2D2D2D2D2D2D2D2D2D2D2D2D2D2D2D68
:103890002D2D2D2D2D2D2D2D2D2D2D5B4F4B5D00E7
:1038A00020202020202020504C4C202020203A2076
:1038B0005243435F434647525F504C4C4D554C4C2E
:1038C00031362E2D2D2D2D2D2D2D2D2D2D2D2D2D1A
:1038D0002D2D2D2D2D2D2D2D2D2D2D2D2D2D2D5BEA
:1038E0005741524E5D00202020202020205370653B
:1038F000656420203A203132384D487A20387831BA
:1039000036202D2D2D2D2D2D2D2D2D2D2D2D2D2DEB
:103910002D2D2D2D2D2D2D2D2D2D2D2D2D2D2D2DD7
:103920002D2D2D2D2D5B5741524E5D00555341528B
:10393000543A0000000000000000000000000000F9
:103940000000000000000000000000000000000077
:103950000000000000000000000000000000000067
:103960000000000000000000000000000000000057
:103970000000202020202020205553415254312087
:1039800062707331313532303020746F20434833E8
:10399000343047202E2D2D2D2D2D2D2D2D2D2D2D3F
:1039A0002D2D2D2D2D2D2D2D2D2D2D2D2D2D2D2D47
:1039B0002D2D2D5B4F4B5D002020202020202055F9
:1039C00053415254322062707331313532303020DD
:1039D000746F2045535038323636202E2D2D2D2D24
:1039E0002D2D2D2D2D2D2D2D2D2D2D2D2D2D2D2D07
:1039F0002D2D2D2D2D2D2D2D2D5B4F4B5D002020A0
:103A000020202020205553415254322062707331BF
:103A1000313532303020746F206B6579626F61729E
:103A2000642E2D2D2D2D2D2D2D2D2D2D2D2D2D2D8E
:103A30002D2D2D2D2D2D2D2D2D2D2D2D2D2D2D5B88
:103A40004F4B5D004E5649433A0000000000000015
:103A50000000000000000000000000000000000066
:103A60000000000000000000000000000000000056
:103A70000000000000000000000000000000000046
:103A80000000000000000000000020202020202076
:103A90002047726F757020303A20444D41315F43AA
:103AA00048335B305D2E2D2D2D2D2D2D2D2D2D2DC3
:103AB0002D2D2D2D2D2D2D2D2D2D2D2D2D2D2D2D36
:103AC0002D2D2D2D2D2D2D2D2D2D2D5B4F4B5D00B5
:103AD0002020202020202047726F757020313A204E
:103AE00054494D315F4343345B305D2C54494D3272
:103AF0005F4343315B305D2E2D2D2D2D2D2D2D2D32
:103B00002D2D2D2D2D2D2D2D2D2D2D2D2D2D2D2DE5
:103B10002D5B4F4B5D002020202020202047726F1E
:103B2000757020323A204E2F412E2D2D2D2D2D2D0A
:103B30002D2D2D2D2D2D2D2D2D2D2D2D2D2D2D2DB5
:103B40002D2D2D2D2D2D2D2D2D2D2D2D2D2D2D2DA5
:103B50002D2D2D2D2D2D2D5B4F4B5D002020202058
:103B600020202047726F757020333A205553415200
:103B700054312C322C335B335D2E2D2D2D2D2D2DDC
:103B80002D2D2D2D2D2D2D2D2D2D2D2D2D2D2D2D65
:103B90002D2D2D2D2D2D2D2D2D2D2D2D2D5B4F4BE7
:103BA0005D00576966693A000000000000000000EF
:103BB0000000000000000000000000000000000005
:103BC00000000000000000000000000000000000F5
:103BD00000000000000000000000000000000000E5
:103BE0000000000000000000202020202020204DA8
:103BF0006F64652020203A2043575341502E2D2DCD
:103C00002D2D2D2D2D2D2D2D2D2D2D2D2D2D2D2DE4
:103C10002D2D2D2D2D2D2D2D2D2D2D2D2D2D2D2DD4
:103C20002D2D2D2D2D2D2D2D2D5B4F4B5D0020206D
:103C30002020202020535349442020203A20416D49
:103C400061646575732E2D2D2D2D2D2D2D2D2D2D72
:103C50002D2D2D2D2D2D2D2D2D2D2D2D2D2D2D2D94
:103C60002D2D2D2D2D2D2D2D2D2D2D2D2D2D2D5B56
:103C70004F4B5D002020202020202053656372746C
:103C800079203A20575041322F50534B2041455311
:103C90002E2D2D2D2D2D2D2D2D2D2D2D2D2D2D2D53
:103CA0002D2D2D2D2D2D2D2D2D2D2D2D2D2D2D2D44
:103CB0002D2D2D2D2D5B4F4B5D0020202020202011
:103CC00020506173737764203A206B2E6D616B69AD
:103CD00073652E2D2D2D2D2D2D2D2D2D2D2D2D2D95
:103CE0002D2D2D2D2D2D2D2D2D2D2D2D2D2D2D2D04
:103CF0002D2D2D2D2D2D2D2D2D2D2D5B4F4B5D0083
:103D000020202020202020434820202020203A204E
:103D100031312D2D2D2D2D2D2D2D2D2D2D2D2D2DCB
:103D20002D2D2D2D2D2D2D2D2D2D2D2D2D2D2D2DC3
:103D30002D2D2D2D2D2D2D2D2D2D2D2D2D2D2D2DB3
:103D40002D5B4F4B5D00464F4E543A000000000083
:103D50000000000000000000000000000000000063
:103D60000000000000000000000000000000000053
:103D70000000000000000000000000000000000043
:103D800000000000000000000000000020202020B3
:103D9000202020436F64652020203A20416D657209
:103DA0006963616E205374616E6461726420436F55
:103DB000646520496E666F726D6174696F6E20492B
:103DC0006E7465726368616E67652E2D5B696E66E1
:103DD0005D0020202020202020466F6E74202020AF
:103DE0003A2053797374656D205374616E64617207
:103DF0006420666F6E74206F6E6C792E2D2D2D2DC4
:103E00002D2D2D2D2D2D2D2D2D2D2D2D2D2D2D2DE2
:103E10002D2D5B696E665D00447665203A000000DA
:103E20000000000000000000000000000000000092
:103E30000000000000000000000000000000000082
:103E40000000000000000000000000000000000072
:103E50000000000000000000000000000000202022
:103E600020202020204553503832363620576972A2
:103E7000656C657373206E6574776F726B65722005
:103E80002E2D2D2D2D2D2D2D2D2D2D2D2D2D2D2D61
:103E90002D2D2D2D2D2D2D2D2D2D2D2D2D2D2D5B24
:103EA0004F4B5D002020202020202044533332330C
:103EB00031205265616C2054696D65722E2D2D2D57
:103EC0002D2D2D2D2D2D2D2D2D2D2D2D2D2D2D2D22
:103ED0002D2D2D2D2D2D2D2D2D2D2D2D2D2D2D2D12
:103EE0002D2D2D2D2D5B4F4B5D00202020202020DF
:103EF000205647412038303078363030203534482D
:103F00007A2E2D2D2D2D2D2D2D2D2D2D2D2D2D2D93
:103F10002D2D2D2D2D2D2D2D2D2D2D2D2D2D2D2DD1
:103F20002D2D2D2D2D2D2D2D2D2D2D5B4F4B5D0050
:103F300000000000000000000003800000000000FE
:103F40000000000000000000000000000000000071
:103F5000000000000000000000000000000000075A
:103F6000E000000000000000000000000000000071
:103F700000000000000000000000000080000000C1
:103F800000000000000FF000000000000000000032
:103F90000000000000000000000000000000000021
:103FA0000000ED554AC000000000001FF8000000AE
:103FB0000000000000000000000000000000000001
:103FC0000000000000000000FFFFFFE00000000014
:103FD000003FF800000000000000000000000000AA
:103FE0000000000000000000000000000000FFFFD3
:103FF000FF600000000000FFF00000000000000073
:1040000000000000000000000000000000000000B0
:10401000000000007FFFF5F80000000003FFE00053
:104020000000000000000000000000000000000090
:10403000000000000000000000007FFFFFD0000033
:1040400000000FFFC00000000000000000000000A2
:104050000000000000000000000000000000000060
:104060007FFEDB60000000001FFF800000000000FA
:104070000000000000000000000000000000000040
:104080000000000000007FFFFDA000000000FFFE18
:104090000000000000000000000000000000000020
:1040A0000000000000000000000000003FD5B7E065
:1040B00000000007FFFC00000000000000000000FE
:1040C00000000000000000000000000000000000F0
:1040D000000000003FE00000003FFFF8000000008B
:1040E00000000000000000000000000000000000D0
:1040F000000000000000000000003DC00000003F84
:10410000FFF80000000000000000000000000000B8
:10411000000000000000000000000000000000009F
:1041200036800500001FFFF80000000000000000BE
:10413000000000000000000000000000000000007F
:104140000000000000007F8004A0000FFFF00000CE
:1041500000000000000000000000006000000000FF
:104160000000000000000000000000007F001FBFF2
:10417000C007F3F80000000000000000000000008D
:1041800000600000000000000000000000000000CF
:104190000000F70016BF8003C3F800000000000015
:1041A00000000000000000200000000000000000EF
:1041B0000000000000000001FF005A3F800303F8E8
:1041C00000000000000000000000000002B000003D
:1041D0000000000000000000000000000002FE00DF
:1041E000B7FF80000378000000000000000000001E
:1041F000000003C8000000000000000000000000F4
:10420000000000037E00ECBF808001FC0000000085
:10421000000000000000000003F0000000000000AB
:104220000000000000000000000FFF827FFFFFF091
:1042300003F800000000000000000000000003F888
:104240000000000000000000000000000000000F5F
:10425000FFABFFFFFFF0035C0180000000000000E7
:104260000000000003F80000000000000000000053
:1042700000000000001FFFD5FFFEFFF003F003F079
:104280000000000000000000000001F80000000035
:1042900000000000000000000000007FFFFA5FFF48
:1042A000FDF0037803F800000000000000000000AB
:1042B00001F8000000000000000000000000000005
:1042C000007FFFF9757FF77003B802D80600000081
:1042D00000000000000001E80000000000000000F5
:1042E00000000000000001FFDFDCDFFEFBF003F850
:1042F00007701700000000000083FB0001F00000C1
:1043000000000000000000000000000003FF8FEB31
:1043100000BF056003D80BDFFF00000000000001B4
:10432000FE0001F001F000000000000000000000AD
:1043300000000FFF07FD801D02B009780EFFFF800F
:10434000000000000003FF0007F003FA4FFFE00049
:1043500000000000000000003FFE01FE80170BD0AF
:1043600005DC0BB7FF80000000000001FF0023F810
:104370000BFFFFFF60000000000000000000FFF8DE
:1043800001FFC01B07E001C81DBAFFC0000000808C
:104390000043FE0019F807FFF7E9E0000000000005
:1043A00000000000FFF000F5003E0360035066DFF0
:1043B000FF000000FE400083FF007EF80FFFFFBFFC
:1043C000A00000000000000000007FE0005E807E92
:1043D00007F001E83BEBFE87FFFFDFA00149FF018B
:1043E000FE701FFFEFC3E0000000000000000000AF
:1043F000AF80003700FE03E001F0DA007E07FFFF28
:10440000FFA00027FF017F2007BE06DFA0000000FD
:104410000000000000007700001801FC07E001A583
:104420006A00FE07FFFFF5C00083FE80BF800FFF1C
:10443000FF77C00000000000000000001C00000C1E
:10444000037C076002D3F801FC07FFFFFFE0004791
:10445000FF201F000FFFFFFAC00000000000000057
:1044600000000200000007F807E00103D401FC0788
:10447000FFFFFFE0006BFE900E000FFFF7E760000C
:104480000000000000000000000000000FF80FE036
:1044900001017003F80000000AA0002BFE5000008C
:1044A0000FFFFF43A000000000000000000000001C
:1044B00000002FE04FE00001A0037800000005A0FD
:1044C000001BFF7C000003FBEFFFC00000000000AA
:1044D00000000000000000017FA3FEC00000C00734
:1044E000F00100000200001BFFFF000007F7CFFFF4
:1044F000E000000000000000000000000000FA8062
:10450000FFC00000000FF07FFFFFE000000DFFFF85
:10451000C00017FFF7FFE0000000000000000000EF
:1045200000000000FF81DFC00000000EE07FFFFF01
:10453000F0000003FFFFE0000FFFFFEBE0000000D2
:10454000000000000000000000005F00FF8000008D
:10455000002FC07FFFFFF8000001FFFFF80037FFCA
:10456000FFCBE01800000000000000000000000089
:104570003E00F6000000007B407FFFFFF8000003D4
:10458000FFFFFA0007FFCFFFE03EDFF03F800000B3
:1045900000000000000000007D00000000AF807FF0
:1045A000FFFFF0000003FFFFFE0003EFEFFFE03F1F
:1045B000FFF07F800000000000000000000000000D
:1045C000000000BD0000000FE0000001FF7FFF8041
:1045D00003FFEFFFE07FFFFFBD00000000000000D1
:1045E000000000000000000005CE0000000FE00009
:1045F0000003FE1FFFC003FFEFFFE07FFFFFFE8011
:1046000000000000000000000000000000000AB8E8
:104610000000001FC0000003FF2FFFC003EF83BE98
:10462000003FFFEFBF0003F8300000000000000073
:10463000000000002DDC0000001F80020001FE03CE
:10464000FF8003F7E7FE000EF9FFFF8001F03E0058
:104650000000000000000000000014E00000003F27
:1046600080030001FE01FFC003FFE7FE00007FFFA3
:10467000BF8207FA3F800000000000000000000039
:104680000E600000003F800F0383FF007F0003FFE8
:10469000FFFE0020FFF7FF83F3FFFF000000000094
:1046A0000000000000000580000000FF0BBF81F942
:1046B000FE003E0003F7CFFEC07ADFFFBF03DDFF41
:1046C000FE000000000000000000000002000000EA
:1046D00000FE0F9F83F3FF001E0003EFBFBEF0FC40
:1046E000FFFFFF076ABFFE0000000000000000009F
:1046F00000000000000007540FCFC3F1FE000C00C3
:1047000003FFFFBFF0FA79FFBF016ADFF800000086
:104710000000000000000000020000001F5007CF52
:10472000C3E1FF00020003FFFF3FF0F8D9EFFE00F6
:104730000273F800000000001000000000000000FC
:104740000000FDE003E7C3E1FE0000000355BE7F6B
:10475000E17C7FFFBE0103B7FD40000003001F00A6
:10476000E007007F800000016ED001F787C1FF00E5
:10477000000003EA563FE01476EFFF1FFFDFFFC0A3
:10478000018103001F00C207807FC0000000FB40C2
:1047900000E407E1FE00000003E0101FE0005FFFFF
:1047A000BE1DFFFFFFE00183830C0000F63FB87FD2
:1047B000800000005D00000007C3FE0000BA00009A
:1047C000000000286BF7FE1FFFDFFFC0018183BCE4
:1047D0003F8FFB3E3C0600000000280000000FC198
:1047E000FE0003FF000000000010B9EFBE1FFFEF46
:1047F000FFC00181C1F8FFC7FB0C0C0000000000E6
:10480000300000001F83FF001FFFC0000000000CED
:104810006DFFFE0817BBBDA00180C3C0E0C19B8C2B
:10482000600000000000000000003F83FE001FFF4A
:10483000E0000000000C36FFBE000FEC008001809D
:10484000C70000C39B9C60600000000000000000E7
:104850007F03FE00FFFFE0000000004E97FFFE0018
:104860003FF7FE0001B0EE0000C31B19E0C00000DE
:10487000000000000000FE07FF007563F00000006C
:1048800000352DEFBE01FFEFFF0001F08E0001C7E4
:10489000383FF0C00000000000000001FC0FFE01E6
:1048A000FDF0D8000000001636EFFE1FFFDBFE0013
:1048B00001E00F0C0386B81678FFC000000000006E
:1048C0000003F81FFF01F1E0E8000000003A106566
:1048D000BE1FFFE9FE0000E007FC1F0EF007F87F97
:1048E000E00000000000000FF81FF001F2E074008B
:1048F0000000000858707E0FFE087E00000001FCDA
:104900001E006003C000000000000000000BF00F5C
:10491000E002E3A0100000000064B4FABE0FFFE55F
:104920003E00000000000000000000000000000049
:10493000000000BFE003D003E3E008000000007DBA
:1049400069FDFE17FFEAFF00000000000000000004
:1049500000000000000000000017C001C003E2C01A
:104960004000000000F9B8FDFE077F92BE00000085
:104970000000000000000000000000000000001F18
:1049800000000003C3402800000001FBE07DFE00A2
:104990007FC8BF0000000000000000000000000011
:1049A0000000000000080000000367C09000000045
:1049B000006BE07AFE003E207F0000000000000057
:1049C00000000000000000000000000000000001E6
:1049D000E780E000000000184030FC003FA11E000E
:1049E00000000000000000000000000000000000C7
:1049F000000000000005FD81280000000000000804
:104A000000007FF4DF000000000000000000000054
:104A1000000000000000000000000001FF812000F5
:104A200000000000000000007FF46E0000000000A5
:104A30000000000000000000000000000000000076
:104A40000000ED0D000000000000000000003FD15C
:104A50005E000000000000000000000000000000F8
:104A60000000000000000000FE3080000000000098
:104A7000000000003EAABF0000000000000000008F
:104A800000000000000000000000000000007E00A8
:104A9000400000000000000000007E001E0000003A
:104AA0000000000000000000000000000000000006
:104AB000000000001C1000000000000000000000CA
:104AC0000A08800000000000000000000000000054
:104AD00000000000000000000000000A00000000CC
:104AE00000000000000000000100000000000000C5
:104AF00000000000000000000000000000000000B6
:104B000000000000000000000000000000000000A5
:104B10000000000000000000000000000000000095
:104B2000000000000000001FFC000000000000006A
:104B300000000000000700180E00600000000000E8
:104B400000000000001F80180E0078000000000028
:104B50000000000000FF80180E00FF0000000000B1
:104B60000000000003F1C0180E00CFE000000000BC
:104B7000000000000380C0380E01C1F000000000FA
:104B8000000000000300E038060180700000000013
:104B90000000000003806038060380600000000011
:104BA00000000000038060F8070300E00000000040
:104BB0000000000001803FF007FB00E00000000063
:104BC0000000001001803FE003FF00C00000000073
:104BD0000000003801C01800003E00C006000000C0
:104BE000000000FC00C00000000001C00F00000039
:104BF000000001EE00C00000000001C01F800000A6
:104C00000000038703C000000000018039C00000DD
:104C1000000007038F800000000001E070E000004A
:104C200000000E01DE000000000000F8E07000004F
:104C300000001C00F80000000000003DC03800002B
:104C400000000E00600000000000000F801C00004B
:104C5000000007000000000000000007003800000E
:104C60000000030000000000000000000030000011
:104C70000000038000000000000000000060000051
:104C8000000001C0000000000000000000E0000083
:104C9000000000C0000000FFFE00000001C0000096
:104CA000000000E000000FFFFFF0000001800000A6
:104CB000000000E000007FE00FFC000003000000A7
:104CC000001C01C00003F8C0063F80000300000084
:104CD000003F0380000FC0C00603E00003801C00FB
:104CE0000037C700001E00C00600F00001C07C00B5
:104CF0000071FE00007C00C006003C0000E0FE00E9
:104D000000607C0000F000C006001E000077E60096
:104D100000E01C0001C000C006000780003F070043
:104D200000C00000078000C0060003C0003C030074
:104D3000018000000F0000C0060000E000100180AC
:104D4000038000001C0000C006000070000001C0CD
:104D500001C00000380000C006000038000000C09C
:104D600000F00000300000C00600001C000001C080
:104D700000780000700000C00600000E00000780F0
:104D8000001E0000E00000C00600000600000F004A
:104D9000000F0001C00000C00600000300003C003E
:104DA00000030001800000C00600000380007800BE
:104DB00000070003000000C0060000018000E000C2
:104DC00000060007000000C006000000C000C00090
:104DD00000060006000000C006000000E000E00041
:104DE000000E000E000003C007800000600060009D
:104DF000000C000C00000F8003E000007000600059
:104E00003FFC001C00001E0000F00000300070009D
:104E10007FFC0018000038000038000038003074B3
:104E200073F8003800007000001C000018003FFEFE
:104E3000700000300000E000000E000018003FFE8F
:104E4000700000300001C000000700001C000004DA
:104E50007000007000018000000380000C0000045E
:104E60007000006000030000000180000C000006DC
:104E700070000060000700000001C0000C00000688
:104E800070000060000600000000C0000E00000678
:104E9000780000FFFFFE00000000FFFFFE000002A0
:104EA0007F0000FFFFFC000000007FFFFE0000020B
:104EB0001FE000E000000000000000000E00003EC7
:104EC00001F000C00000000000000000060007FE26
:104ED000007000C0000000000000000006000FE0AD
:104EE000007000C0000000000000000006000E007E
:104EF000007000C0000000000000000006000C0070
:104F0000007000C0000000000000000006000C005F
:104F1000007000C0000000000000000006000C004F
:104F2000007000C0000000000000000006000C003F
:104F3000007000C0000000000000000006001C001F
:104F400003F000C0000000000000000006001C008C
:104F50007FE000E000000000000000000E001F8065
:104F60007C0000FFFFFC000000007FFFFE000FFA46
:104F7000700000FFFFFE00000000FFFFFE0000FECB
:104F800070000060000600000000C0000E00001E5F
:104F900070000060000700000001C0000C00000667
:104FA0007000007000038000000180000C0000060B
:104FB0007000007000018000000380000C000006FB
:104FC000600000300001C000000700001C00000469
:104FD000600000300000E000000E00001800000635
:104FE0007FF8003800007000003C00003800000E20
:104FF0007FFC001800003C000078000030003FCE2D
:105000003E0C001C00001F0001E0000070007FFE4D
:10501000000C000C000007C007C00000600067FA29
:10502000000E000E000003C007800000E0006000DA
:1050300000060006000000C006000000C000E000FE
:1050400000060007000000C006000001C000C0000C
:1050500000030003800000C0060000018001C000C2
:1050600000070001800000C00600000380018000EE
:10507000001E0001C00000C0060000070001C000C3
:10508000003C0000E00000C00600000E0000F00040
:1050900000F00000700000C00600000E0000780064
:1050A00001E00000380000C00600001C00001C00E9
:1050B000038000001C0000C00600003800000F0044
:1050C000030000000E0000C006000070000003C0D6
:1050D00003800000070000C0060001E0000001C0DE
:1050E00001800800038000C0060003C000000180AA
:1050F00000C03C0001E000C00600070000200300E3
:1051000000E0FE0000F000C006001E00007807006E
:105110000063E600003C00C006007C0000FE0600C4
:10512000007F8700001F00C00601F00001CF8E0045
:10513000003E03800007C0C00607C0000383FC00D8
:10514000003801C00001F8C0063F00000700FC0065
:10515000000000E000007FE00FFC00000E003800BF
:10516000000001C0000007FFFFE000000E0000008B
:1051700000000180000000FFFE00000007000000AA
:105180000000038000000000000000000300000099
:105190000000070000000000000000000380000085
:1051A00000000600000000000000000001C0000038
:1051B00000000C00600000000000000000E00000A3
:1051C00000001C00F00000000000001C0060000057
:1051D00000003801FC0000000000003E00700000EC
:1051E00000001C039E000000000000F700380000D3
:1051F00000000E0707800000000003E3807000003D
:105200000000070E03C0000000000781C0E000009E
:105210000000039C01C0000000000700E1C0000086
:10522000000001F803800000000003007780000008
:10523000000000F003807E00007803003F000000C3
:105240000000006003007FE00FFC03801C000000F2
:10525000000000000300EFE00FFC018008000000E8
:10526000000000000700E0601C0C0180000000004E
:10527000000000000700C0601C0601800000000064
:10528000000000000601C0601C0601C00000000014
:10529000000000000E0180601C0700C0000000003C
:1052A000000000000F8380701C0301C0000000009C
:1052B0000000000007F3007018038FC0000000001A
:1052C0000000000000FF00701801FF000000000057
:1052D00000000000001E00701801F800000000002F
:1052E00000000000000600701800E0000000000050
:1052F000000000000000003FF80000000000000077
:10530000000000000000000000000000000000009D
:10531000FFFFFFFFFFFFFFFFFF3FFF9E008000003A
:10532000000003FFFFFFFFFFFFFFFFFFFFFFFFFF87
:10533000FFFFFFFFFFFFFFFFFFBFFFC0AE4A14A448
:1053400094A490FFFFFFFFFFFF9FF0FFF3FFFFFF1D
:10535000FFFFFFFFFFFFFFFFFF9FFFD7F900A00246
:105360004010013FFFFFFFFFFF1FE07FF07FFFFFC7
:10537000FFFFFFFFFFFFF1FFFFDFFFFFF0040A5019
:105380001509280FFFFFFFFFFF3FC03FF00FFFFF92
:10539000FFFFFFFFFFFFE4FFFFDFFFFF9142410A36
:1053A00040448287FFFFFFFFFF3F873FF800FFFF7A
:1053B000FFFFFFFFFFFFCE7FFFCFFFFF4428142139
:1053C00009100821FFFFFFFFFF3F8F9FFF001FFF16
:1053D000FFFFFFFFFFFF1F3FFFCFFFFD0281408464
:1053E0002402508AFFFFFFFFFF3F1F9FFFC003FF04
:1053F000FFFFFFFFFFFE3F9FFFCFFFFC5024122265
:10540000919104007FFFFFFFFF3F1F9FFFC7003FF9
:10541000FFFFFFFFFFFC7FCFFE3FFFF20A929120CC
:10542000488852843FFFFFFFFF9E3F9FFFC7E03F3A
:10543000FFFFFFFFFFF9FFE7F8FFFFC944084495AE
:10544000022108511FFFFFFFFF803F9FFFC7FE3F64
:10545000FFFFFFFFFFF3FFF3F1FFFFA010A12A08FA
:105460002914A50007FFFFFFFFC07F3FFFC7E03FF4
:10547000FFFFFFFFFFC7FFF9CFFFFF924514014574
:1054800010840154A3FFFFFFFFE1FFFFFFC6003FB1
:10549000FFFFFFFFFFCFFFFC0FFFFE09214351106D
:1054A0008A5150220BFFFFFFFFFFFFFFFFC003FFEA
:1054B000FFFFFFFFFFEFFFFE7FFFFD4414280846BC
:1054C00040844A8820FFFFFFFFFFF3FFFE001FFF1D
:1054D000FFFFFFFFFFE7FFFFFFFFFC12C8855291B0
:1054E00016530425887FFFFFFFFFF3FFF000FFFF47
:1054F000FFFFFFFFFFF3FFFFFFFFF24822510849C4
:105500004008A290453FFFFFFFC000FFF00FFFFFE4
:10551000FFFFFFFFFFF9FFFFFFFFF10519089440B0
:105520002AA2204A405FFFFFFF80007FF07FFFFF3D
:10553000FFFFFFFFFFF9FFFFFFFFE4504252432A46
:1055400084088A01251FFFFFFF00007FF3FFFFFF94
:10555000FFFFFFFFFFFCFFFFFFFFD14A890928047F
:1055600051521154108FFFFFFF1FF3FFFFFFFFFF8A
:10557000FFFFFFFFFFFE7FFFFFFFC820A04102A14A
:1055800004094C114847FFFFFF3FF3FFF0000FFFF6
:10559000FFFFFFFFFFFF3FFFFFFF852A3550B114DC
:1055A000A549238C2427FFFFFF3FF3FFF0000FFFE7
:1055B000FFFFFFFFFFFF3FFFFFFF20848215084A28
:1055C000512480211283FFFFFFFFFFFFF0000FFF38
:1055D000FFFFFFFFFFFF9FFFFFFE86512942AA91B9
:1055E0000492148A4821FFFFFFFFFFFFFFFF3FFFE8
:1055F000FFFFFFFFFFFFCFFFFFFE511480508488A5
:10560000A21152A92528FFFFFFF07FFFFFFF9FFF98
:10561000FFFFFFFFFFFF8FFFFFFD0942DA1252A8D5
:10562000519488051402FFFFFFC01FFFFFFF8FFF8B
:10563000FFFFFFFFFFFFBFFFFFF824282148A00561
:10564000082222C241087FFFFF8007FFFFFF8FFF74
:10565000FFFFFFFBFFFE3FFFFFFA91850AA51569DB
:10566000555499292CA0BFFFFF8CC7FFFFFF8FFF68
:10567000FFFFFFF0FFFE7FFFFFF8545488128414F1
:10568000401284A484883FFFFF1CF3FFFFFF0FFF3D
:10569000FFFFFFF03FFCFFFFFFEA03429548A28AAD
:1056A0002D50A44244493FFFFF3CF3FFF0000FFFA1
:1056B000FFFFFFE78FF9FFFFFFE058144A25142191
:1056C000400A52A933041FFFFF3CF3FFF0003FFFE5
:1056D000FFFFFFEFE3F3FFFFFFE8875304C8D2DAD1
:1056E00016D4891244529FFFFF3CE3FFF0007FFF76
:1056F000FFFFFFCFF0F7FFFFFFA66040B2260A09C9
:10570000A24A695151404FFFFF3C07FFFFFF3FFF97
:10571000FFFFFF9FFE0FFFFFFFC1165615434148D5
:105720009149091254122FFFFF9C0FFFFFFF9FFFAB
:10573000FFFFFFBFFF8FFFFFFF84A9205234B55446
:105740004A54D4A90A890FFFFFFC3FFFFFFF8FFFD8
:10575000FFFFFF3FFFFFFFFFFF1004AB2C934A2921
:1057600054AA4A48B0A007FFFFFFFFFFFFFF8FFFCB
:10577000FFFFFF3FFFFFFFFFFE4352A4128922B449
:1057800055122124948A87FFFFFFFFFFFFFF8FFF41
:10579000FFFFFE7FFFFFFFFFFCA928254A44AA1652
:1057A00045519892444047FFFF00033FFFFF0FFF22
:1057B000FFFFFC7FFFFFFFFFF1009594552A515139
:1057C000911A46A8915123FFFF00031FF0001FFF0D
:1057D000FFFFFCFFFFFFFFFFE3A6682120A584ACCD
:1057E0002A6028144A0413FFFF00033FF0001FFF44
:1057F000FFFFF8FFFFFFFFFFC6110D8C5A20BA25EF
:10580000492A8A8449620BFFFFFFFFFFF0007FFFF8
:10581000FFFFFE7FFFFFFFFFCF48C0412914029228
:1058200064284952441103FFFFFFFFFFFFFFFFFF02
:10583000FFFFFF1FFFFFFFFF1F052D580546AA2989
:105840000A86A428229091FFFFFFFFFFFFFFFFFFC2
:10585000FFFFFFCFFFFFFFFE7F24222570908944CA
:10586000A2301142982441FFFFFFFFFFFFFFFFFF1F
:10587000FFFFFFE3FFFFFFFC7E9291110A524414E9
:10588000908495284A9411FFFF0003FFFFFFFFFF5C
:10589000FFFFFFF8FFFFFFF8FE085498444A434417
:1058A0005562402A224241FFFF0003FFFC3FFFFFF9
:1058B000FFFFFFFCFFFFFFF9FE450A0121013492C3
:1058C00088181540491010FFFF0007FFF80F9FFFD1
:1058D000FFFFFFFE1FFFFFF3FE2860AA5A54822439
:1058E00025414017100889FFFFFFE7FFF0079FFFE2
:1058F000FFFFFFFF9FFFFFF3FF0B2A2101225092C2
:10590000844855108D4A48FFFFFFF7FFF1C7CFFFCE
:10591000FFFFFFFF9FFFFFE7FCA089115491144A8E
:10592000522A4508422001FFFFFFF3FFF3E7CFFFB4
:10593000FFFFFFFFBFFFFFCFFC122424020A4290AB
:10594000A14410A5288824FFFFFFF3FFF3F3CFFF46
:10595000FFFFFFFF3FFFFFDFFD089290A8A10A4A6B
:105960000A1142440502807FFFFFE3FFF3F3CFFFFC
:10597000FFFFFFFF3FFFFF9FFC4292124A10A2224F
:1059800091482822905010FFFF0007FFF9F3CFFF46
:10599000FFFFFFFF7FFFFF3FFE50494921491110E4
:1059A000892485208B08887FFF0007FFF8F39FFF7D
:1059B000FFFFFFFE7FFFFF3FFC0A8010142244AA76
:1059C00054904214244220FFFF001FFFF0001FFFED
:1059D000FFFFFFFEFFFFFE7FFD21152241001200A9
:1059E000420900491038027FFFFFFFFFF0003FFF30
:1059F000FFFFFFFCFFFFFE7FFD2045125551896A26
:105A00002948A1240B02217FFFFFFFFFF000FFFFC9
:105A1000FFFFFFFCFFFFFEFFFC9241011014442931
:105A2000244408128891107FFF9F8FFFFFFFFFFF24
:105A3000FFFC07FDFFFFFCFFFC092C6040C1128446
:105A40008220A2442240047FFF3E07FFFFFFFFFFAA
:105A5000FFFC0009FFFFFDFFFAA081120A20485059
:105A6000288881210914407FFF3E07FFFFFFFFFFC9
:105A7000FFFDFC01FFFFF9FFF828A8912002050AAD
:105A8000A4A41008A8C2123FFF3C63FFFF81FFFFE0
:105A9000FFFDFFFFFFFFFBFFFC040840955144A002
:105AA00014510444086080BFFF3C73FFFC007FFF7B
:105AB000FFFDFFFFFFFFF3FFFA9142122000100AE3
:105AC000410291220514083FFF18F3FFF8003FFF41
:105AD000FFF9FFFFFFFFF3FFFC24552110404AD0E0
